:020000022000DC
:1030000000000120D54D0200FD4D0200FF4D0200E1
:10301000014E0200034E0200054E020000000000B7
:10302000000000000000000000000000074E020049
:10303000094E0200000000000B4E02000D4E02007F
:103040000F4E02000F4E0200BDD402000F4E0200D0
:103050000F4E02000F4E0200FDE602000F4E02006E
:103060000F4E02000F4E02000F4E02000F4E0200E4
:103070000F4E02000F4E02000F4E02000F4E0200D4
:103080000F4E0200D57B02000F4E02000F4E0200D1
:10309000157C02000F4E0200615C02000F4E020020
:1030A0000F4E02000F4E02000F4E02000F4E0200A4
:1030B0000F4E02000F4E0200000000000000000052
:1030C0000F4E02000F4E02000F4E02000F4E020084
:1030D0000F4E02000F4E02000F4E020000000000D3
:1030E00000000000000000000000000000000000E0
:1030F00000000000000000000000000000000000D0
:1031000000000000000000000000000000000000BF
:1031100000000000000000000000000000000000AF
:10312000000000000000000000000000000000009F
:10313000000000000000000000000000000000008F
:10314000000000000000000000000000000000007F
:10315000000000000000000000000000000000006F
:10316000000000000000000000000000000000005F
:10317000000000000000000000000000000000004F
:10318000000000000000000000000000000000003F
:10319000000000000000000000000000000000002F
:1031A000000000000000000000000000000000001F
:1031B000000000000000000000000000000000000F
:1031C00000000000000000000000000000000000FF
:1031D00000000000000000000000000000000000EF
:1031E00000000000000000000000000000000000DF
:1031F00000000000000000000000000000000000CF
:1032000010B5054C237833B9044B13B10448AFF320
:1032100000800123237010BD3C220020000000002C
:10322000C0710300084B10B51BB108490848AFF343
:1032300000800848036803B910BD074B002BFBD082
:10324000BDE81040184700BF0000000040220020E9
:10325000C0710300E421002000000000154B002B8A
:1032600008BF134B9D46A3F5803A00218B460F46BD
:103270001348144A121A11F0E6FA0F4B002B00D033
:1032800098470E4B002B00D09847002000210400E7
:103290000D000D48002802D00C48AFF3008011F05B
:1032A000A1FA2000290011F0D9F811F087FA00BF27
:1032B00000000800000001200000000000000000E5
:1032C0003C220020402E00200000000000000000F2
:1032D0002BDF704700BF18462CDF704700BF184631
:1032E0002DDF704700BF18462EDF704700BF18461D
:1032F0002FDF704700BF184630DF704700BF184609
:1033000033DF704700BF184634DF704700BF1846F0
:1033100031DF704700BF184632DF704700BF1846E4
:1033200035DF704700BF184636DF704700BF1846CC
:1033300037DF704700BF184638DF704700BF1846B8
:1033400039DF704700BF18463ADF704700BF1846A4
:103350003BDF704700BF18463CDF704700BF184690
:103360003DDF704700BF18463FDF704700BF18467B
:1033700040DF704700BF184641DF704700BF184666
:103380003EDF704700BF184620DF704700BF184679
:1033900021DF704700BF184622DF704700BF184684
:1033A00023DF704700BF184624DF704700BF184670
:1033B00025DF704700BF184626DF704700BF18465C
:1033C00027DF704700BF184642DF704700BF18462E
:1033D00043DF704700BF184644DF704700BF184600
:1033E00048DF704700BF184649DF704700BF1846E6
:1033F00029DF704700BF184628DF704700BF184616
:103400002ADF704700BF184645DF704700BF1846E7
:1034100046DF704700BF184647DF704700BF1846B9
:1034200080B582B000AF1F4B7B607B6802221A61BF
:103430007B6802225A617B681B4A9A617B681B4A3F
:10344000DA617B684FF400721A627B6800229A622C
:103450007B6800225A627B680022DA627B68124A2B
:103460009A647B68124ADA647B6810221A657B686A
:1034700000229A657B6800225A657B680022DA6523
:103480007B6807330B49184611F012FA7B680A492A
:10349000184611F00DFA7B6820229A7100BF083798
:1034A000BD4680BDB82D0020885C03005822002056
:1034B00058240020945C0300985C030080B588B019
:1034C00000AFF860B9607A600023BB61FB68DB681D
:1034D0007B61FB681B693B613A697B699A4205D94C
:1034E0003A697B69D31A013BFB6107E0FB689A6884
:1034F00039697B69CB1A1344013BFB61FB689A680D
:103500007B69D31AFA69934228BF1346FB61FA69B3
:103510007B68934228BF1346FB61FB685A687B694E
:103520001344FA69B968184611F082F9BA69FB695F
:103530001344BB61BA68FB691344BB607A68FB69DA
:10354000D31A7B607A69FB6913447B61FB689A68D4
:103550007B699A4201D100237B61FB687A69DA605A
:103560007B68002BB5D1BB6918462037BD4680BDAE
:1035700080B588B000AFF860B9607A60FB68DB683E
:10358000FB61FB689A68FB69D31ABB61BA697B6807
:103590009A420ED9FB685A68FB6913447A68B96885
:1035A000184611F045F9FA697B681A44FB68DA603D
:1035B0001AE0BB697B61FB685A68FB6913447A694E
:1035C000B968184611F034F97A68BB69D31A7B617F
:1035D000FB685868BA68BB6913447A69194611F0E8
:1035E00027F9FB687A69DA6000BF2037BD4680BDE5
:1035F00080B584B000AF78600B46FB70FF233B734F
:10360000FB78074AD35C7B7307F10C03022219464F
:103610007868FFF753FF00BF1037BD4680BD00BF7D
:10362000E420002080B487B000AF78607B681B691D
:103630003B617B68DB68FB603A69FB689A4208D8AB
:103640007B689A68FB68D21A3B691344013B7B6133
:1036500004E03A69FB68D31A013B7B617B69184639
:103660001C37BD465DF8047B704700BF80B58AB04B
:1036700000AFF860B9607A603C4B1B78002B01D139
:10368000FFF7CEFEFA6813465B001344DB004833B5
:10369000364A1344BB61BB68FB61BB691B693B6273
:1036A000BB69DB687B6100237B623A6A7B699A4273
:1036B0002AD9BB699A683B6AD31A3B613A697B682D
:1036C000934228BF13463B61BB695A683B6A134467
:1036D0003A691946F86911F0ABF87A6A3B69134404
:1036E0007B62FA693B691344FB617A683B69D31AD0
:1036F0007B603A6A3B6913443B62BB699A683B6AE8
:103700009A4201D100233B627A693B6AD31A3B613A
:103710003A697B68934228BF13463B613B69002BA3
:1037200018D0BB695A683B6A13443A691946F8696C
:1037300011F07EF87A6A3B6913447B62FA693B694F
:103740001344FB617A683B69D31A7B603A6A3B6930
:1037500013443B627B6A002B02D0BB693A6A1A6150
:103760007B6A18462837BD4680BD00BFB82D0020B3
:1037700080B586B000AFF860B9607A600023FB7452
:1037800007F11303184603F07FF87A68B968F86800
:10379000FFF76CFF7861FB7C184603F081F87B69CA
:1037A00018461837BD4680BD80B588B000AFF860B8
:1037B000B9607A60BB68FB61FB685A1C13465B000A
:1037C0001344DB003D4A13447B617B69DA687B6903
:1037D0001B699A4204D17B699B68013BBB6117E07E
:1037E0007B69DA687B691B699A4207D27B691A692F
:1037F0007B69DB68D31A013BBB6109E07B691A690D
:103800007B69DB68D21A7B699B681344013BBB610F
:103810007A68BB699A4215D97B691A697968BB696C
:10382000CB1A1A447B691A6106E07B691A697B69C5
:103830009B68D21A7B691A617B691A697B699B68EC
:103840009A42F2D27B699A687B69DB68D31ABB61C2
:10385000BA697B689A4210D97B695A687B69DB68D0
:1038600013447A68F969184610F0E2FF7B69DA6858
:103870007B681A447B69DA601BE07B695A687B6964
:10388000DB681344BA69F969184610F0D1FFFA6988
:10389000BB691344FB617B690022DA607A68BB690B
:1038A000D31A7B607B699B68013BBB617B68002B03
:1038B000CED100BF2037BD4680BD00BFB82D00204F
:1038C00080B58AB000AFF860B9607A60BB687B628F
:1038D000FB685A1C13465B001344DB003F4A134449
:1038E0003B623B6A1B69FB613B6ADB68BB61FA694F
:1038F000BB699A4254D83B6A9A68BB69D31A013BA8
:103900007B617A697B689A420FD33B6A5A68BB69CC
:1039100013447A68796A184610F08AFFBA697B689E
:103920001A443B6ADA60012354E07A69FB69134464
:103930007B617A697B689A424BD33B6A9A68BB6920
:10394000D31A3B613A697B689A420ED93B6A5A683E
:10395000BB6913447A68796A184610F069FFBA693E
:103960007B681A443B6ADA6018E03B6A5A68BB69B4
:1039700013443A69796A184610F05AFF3B6A58684E
:103980007A6A3B69D1187A683B69D31A1A4610F0F3
:103990004FFF7A683B69D21A3B6ADA60012319E06B
:1039A000FA69BB69D31A013B7B617A697B689A42E9
:1039B0000FD33B6A5A68BB6913447A68796A184620
:1039C00010F036FFBA697B681A443B6ADA6001235B
:1039D00000E0002318462837BD4680BDB82D0020E2
:1039E00080B588B000AFF860B9607A60BB68BB6131
:1039F000FB685A1C13465B001344DB001E4A134449
:103A00007B617B695B69012B17D0012B02D3022BF1
:103A100023D029E07869FFF705FE38613A697B68B1
:103A20009A4202D20023FB6121E07B68FB617A6845
:103A3000B9697869FFF79CFD19E07869FFF7F2FD35
:103A400038617A683B69934228BF1346FB61FA6983
:103A5000B9697869FFF78CFD09E07A68B969786916
:103A6000FFF72CFDF86102E00023FB6100BFFB695A
:103A700018462037BD4680BDB82D002080B586B0E1
:103A800000AFF860B9607A600D4B1B78002B01D154
:103A9000FFF7C6FC0023FB7407F11303184602F07E
:103AA000F3FE7A68B968F868FFF79AFF7861FB7CE3
:103AB000184602F0F5FE7B6918461837BD4680BDF2
:103AC000B82D002080B584B000AF786039603868C8
:103AD00010F0F6FEF860FA6839687868FFF7CEFFF4
:103AE000034618461037BD4680BD00BF80B487B07E
:103AF00000AF78600B46FB707B685A1C13465B0076
:103B00001344DB00144A1344FB60FB68DB68013399
:103B10007B61FB689A687B699A4201D100237B61D3
:103B2000FB681A697B699A420CD0FB685A68FB688B
:103B3000DB681344FA781A70FB687A69DA6001234B
:103B40003B6101E000233B613B6918461C37BD46E1
:103B50005DF8047B704700BFB82D002080B586B0AB
:103B600000AF78600B46FB701E4B1B78002B01D119
:103B7000FFF756FC0023FB7207F10B03184602F017
:103B800083FE7B685A1C13465B001344DB00154A16
:103B90001344FB60FB68DB6801337B61FB689A6858
:103BA0007B699A4201D100237B61FB681A697B69BA
:103BB0009A420CD0FB685A68FB68DB681344FA78B9
:103BC0001A70FB687A69DA6001233B6101E0002327
:103BD0003B61FB7A184602F063FE3B6918461837D2
:103BE000BD4680BDB82D002080B586B000AF78609E
:103BF0000B46FB70234B1B78002B01D1FFF710FC09
:103C00000023FB7207F10B03184602F03DFE7B68B0
:103C10005A1C13465B001344DB001A4A1344FB6032
:103C2000FB68DB6801337B61FB689A687B699A42B9
:103C300001D100237B61FB685B69022B05D100BFCA
:103C4000FB681A697B699A42FAD0FB681A697B693A
:103C50009A420CD0FB685A68FB68DB681344FA7818
:103C60001A70FB687A69DA6001233B6101E0002386
:103C70003B61FB7A184602F013FE3B691846183781
:103C8000BD4680BDB82D002080B582B000AFFB1CC2
:103C9000012219460020FFF76BFD03467B607B681D
:103CA000012B02D1FB787B6002E04FF0FF337B6099
:103CB0007B6818460837BD4680BD00BF80B582B01E
:103CC00000AFFFF7E1FF78607B68002BF9DB7B68D2
:103CD00018460837BD4680BD80B582B000AF0C4B9A
:103CE0001B78002B01D1FFF79BFB094B9B6D3B60C1
:103CF000074B5A6D3B689A4202D001237B6001E07A
:103D000000237B607B6818460837BD4680BD00BF36
:103D1000B82D002080B485B000AF78607A68134673
:103D20005B001344DB004833074A1344FB60FB6825
:103D3000DB68BB60FB681B69BA68D31A1846143786
:103D4000BD465DF8047B7047B82D002080B586B075
:103D500000AFF860B9607A603B60394B1B78002B8C
:103D600001D1FFF75DFB0023FB7407F11303184635
:103D700002F08AFD00237B6131497A6913465B00BA
:103D80001344DB000B444C331B68002B08D07B69C9
:103D900001337B612A4B5A697B699A42ECDC00E073
:103DA00000BF274B5A697B699A423CDD24497A69F6
:103DB00013465B001344DB000B444833FA681A6077
:103DC0001F497A6913465B001344DB000B444C33F4
:103DD000BA681A601A497A6913465B001344DB001B
:103DE0000B4450337A681A6015497A6913465B00B0
:103DF0001344DB000B44583300221A6010497A69DF
:103E000013465B001344DB000B44543300221A605A
:103E10000B497A6913465B001344DB000B445C33A7
:103E20003A681A6002E04FF0FF337B61FB7C184672
:103E300002F036FD7B6918461837BD4680BD00BFCD
:103E4000B82D002080B586B000AFF860B9607A6008
:103E50003B603A4B1B78002B01D1FFF7E1FA0023BE
:103E6000FB7407F11303184602F00EFD00237B617B
:103E700032497B695A1C13465B001344DB000B4438
:103E800004331B68002B08D07B6901337B612B4B0B
:103E90001A697B699A42EBDC00E000BF274B1A6984
:103EA0007B699A423DDD25497B695A1C13465B00BC
:103EB0001344DB000B44FA681A6020497B695A1CE2
:103EC00013465B001344DB000B440433BA681A60EA
:103ED0001A497A6913465B001344DB000B44203314
:103EE0007A681A6015497A6913465B001344DB004F
:103EF0000B44283300221A6010497A6913465B008C
:103F00001344DB000B44243300221A600B497A6906
:103F100013465B001344DB000B442C333A681A60F1
:103F200002E04FF0FF337B61FB7C184602F0B8FCE7
:103F30007B6918461837BD4680BD00BFB82D0020EC
:103F400080B586B000AFF860B9607A603B60314BF5
:103F50001B78002B01D1FFF763FA2E4B1B691A4621
:103F6000FB689A424DD90023FB7407F113031846EE
:103F700002F08AFCFB68002B32D02649FB685A1CF1
:103F800013465B001344DB000B44BA681A602149F6
:103F9000FB685A1C13465B001344DB000B440433DC
:103FA0007A681A601B49FA6813465B001344DB0009
:103FB0000B4420333A681A601649FA6813465B00CE
:103FC0001344DB000B44283300221A601149FA68BD
:103FD00013465B001344DB000B44243300221A60B9
:103FE0000C49FA6813465B001344DB000B442C3386
:103FF0003A6A1A60FB7C184602F052FC00237B618F
:1040000002E04FF0FF337B617B6918461837BD46ED
:1040100080BD00BFB82D002080B586B000AFF8602D
:10402000B9607A603B60304B1B78002B01D1FFF701
:10403000F7F92D4B5B691A46FB689A424CD900236D
:10404000FB7407F11303184602F01EFCFB68002BFB
:1040500031D02549FA6813465B001344DB000B445A
:104060004833BA681A602049FA6813465B00134463
:10407000DB000B444C337A681A601B49FA6813461C
:104080005B001344DB000B4450333A681A60164956
:10409000FA6813465B001344DB000B4458330022DC
:1040A0001A601149FA6813465B001344DB000B44A5
:1040B000543300221A600C49FA6813465B0013441B
:1040C000DB000B445C333A6A1A60FB7C184602F052
:1040D000E7FB00237B6102E04FF0FF337B617B69EC
:1040E00018461837BD4680BDB82D002080B584B075
:1040F00000AF78603960164B1B78002B01D1FFF7B9
:104100008FF9134B1B691A467B689A4217D9002313
:10411000FB7207F10B03184602F0B6FB0C497B68F3
:104120005A1C13465B001344DB000B443A681A60C8
:10413000FB7A184602F0B4FB0023FB6002E04FF06C
:10414000FF33FB60FB6818461037BD4680BD00BFDB
:10415000B82D002080B584B000AF78603960164B70
:104160001B78002B01D1FFF75BF9134B5B691A46F3
:104170007B689A4217D90023FB7207F10B0318469C
:1041800002F082FB0C497A6813465B001344DB00A3
:104190000B4448333A681A60FB7A184602F080FBF9
:1041A0000023FB6002E04FF0FF33FB60FB68184622
:1041B0001037BD4680BD00BFB82D002080B584B04B
:1041C00000AF78603960164B1B78002B01D1FFF7E8
:1041D00027F9134B1B691A467B689A4217D90023AB
:1041E000FB7207F10B03184602F04EFB0C497A688C
:1041F00013465B001344DB000B442C333A681A600F
:10420000FB7A184602F04CFB0023FB6002E04FF003
:10421000FF33FB60FB6818461037BD4680BD00BF0A
:10422000B82D002080B584B000AF78603960164B9F
:104230001B78002B01D1FFF7F3F8134B5B691A468B
:104240007B689A4217D90023FB7207F10B031846CB
:1042500002F01AFB0C497A6813465B001344DB003A
:104260000B445C333A681A60FB7A184602F018FB7C
:104270000023FB6002E04FF0FF33FB60FB68184651
:104280001037BD4680BD00BFB82D002080B500AFFF
:10429000FFF7C6F800BF80BD80B588B000AF034609
:1042A000FB71264B1B78002B01D1FFF7B9F80023D7
:1042B000FB61FF233B74FB790F2B37D8FB79204A36
:1042C000D35C7B741F4BBB610023FB7307F10F03AF
:1042D000184602F0D9FABB695B6903F00303022BAD
:1042E0000AD1194AFB79137007F11003022219460B
:1042F000B869FFF7E3F814E0B869FFF793F978615C
:104300007B69012B0AD9104AFB79137007F110035E
:1043100002221946B869FFF72BF902E04FF0FF338C
:10432000FB61FB7B184602F0BBFA02E04FF0FF3363
:10433000FB61FB6918462037BD4680BDB82D0020C3
:10434000E4200020D02D00206824002080B588B013
:1043500000AF03463960FB71414B1B78002B01D144
:10436000FFF75EF8FB790F2B72D83E4BBB613868C4
:1043700010F0A6FA78610023FB7307F10F031846CB
:1043800002F082FAB869FFF74DF93861BB695B69E1
:1043900003F00303012B1FD0012B02D3022B3BD0D0
:1043A0004DE07B691A1D3B699A4202D90023FB61EB
:1043B00049E0FB791946B869FFF71AF97A69396853
:1043C000B869FFF77BF80346FB61274B1B7819465A
:1043D000B869FFF70DF936E03B69032B03D84FF0BE
:1043E000FF33FB612FE0FB791946B869FFF700F94D
:1043F0003B691A1F7B69934228BF13461A463968E6
:10440000B869FFF75BF80346FB61174B1B78194649
:10441000B869FFF7EDF816E0FB791946B869FFF7C0
:10442000E7F87A693968B869FFF748F80346FB612D
:104430000D4B1B781946B869FFF7DAF803E04FF027
:10444000FF33FB6100BFFB7B184602F029FA02E054
:104450004FF0FF33FB61FB6918462037BD4680BD36
:10446000B82D0020D02D0020682400202BDF7047BD
:1044700000BF18462CDF704700BF18462DDF70477D
:1044800000BF18462EDF704700BF18462FDF704769
:1044900000BF184630DF704700BF184633DF704753
:1044A00000BF184634DF704700BF184631DF704741
:1044B00000BF184632DF704700BF184635DF70472F
:1044C00000BF184636DF704700BF184637DF704719
:1044D00000BF184638DF704700BF184639DF704705
:1044E00000BF18463ADF704700BF18463BDF7047F1
:1044F00000BF18463CDF704700BF18463DDF7047DD
:1045000000BF18463FDF704700BF184640DF7047C6
:1045100000BF184641DF704700BF18463EDF7047B6
:1045200000BF184620DF704700BF184621DF7047E4
:1045300000BF184622DF704700BF184623DF7047D0
:1045400000BF184624DF704700BF184625DF7047BC
:1045500000BF184626DF704700BF184627DF7047A8
:1045600000BF184642DF704700BF184643DF704760
:1045700000BF184644DF704700BF184648DF704749
:1045800000BF184649DF704700BF184629DF704753
:1045900000BF184628DF704700BF18462ADF704763
:1045A00000BF184645DF704700BF184646DF70471A
:1045B00000BF184647DF704700BF184680B584B07B
:1045C00000AFF860B9607A607B681A46B96800206D
:1045D000FFF754FA7B6818461037BD4680BD00BF10
:1045E00080B584B000AFF860B9607A603B603A682B
:1045F00079680020FFF742FA3B6818461037BD463D
:1046000080BD00BF2BDF704700BF18462CDF70470E
:1046100000BF18462DDF704700BF18462EDF7047D9
:1046200000BF18462FDF704700BF184630DF7047C5
:1046300000BF184633DF704700BF184634DF7047AD
:1046400000BF184631DF704700BF184632DF7047A1
:1046500000BF184635DF704700BF184636DF704789
:1046600000BF184637DF704700BF184638DF704775
:1046700000BF184639DF704700BF18463ADF704761
:1046800000BF18463BDF704700BF18463CDF70474D
:1046900000BF18463DDF704700BF18463FDF704738
:1046A00000BF184640DF704700BF184641DF704723
:1046B00000BF18463EDF704700BF184620DF704736
:1046C00000BF184621DF704700BF184622DF704741
:1046D00000BF184623DF704700BF184624DF70472D
:1046E00000BF184625DF704700BF184626DF704719
:1046F00000BF184627DF704700BF184642DF7047EB
:1047000000BF184643DF704700BF184644DF7047BC
:1047100000BF184648DF704700BF184649DF7047A2
:1047200000BF184629DF704700BF184628DF7047D2
:1047300000BF18462ADF704700BF184645DF7047A4
:1047400000BF184646DF704700BF184647DF704776
:1047500000BF184680B584B000AF78600B46FB7090
:104760007B689B68FB60FB685A1C7B685B689A42AD
:104770000ED87B681A68FB681344FA781A70FB68D5
:104780005A1C7B689A607B68DB685A1C7B68DA601D
:104790007B689A687B685B689A4215D17B68186968
:1047A0007B6819687B689B681A46FFF767F90246C1
:1047B0007B689B689A4204D07B684FF0FF32DA60D6
:1047C00002E07B6800229A6000BF1037BD4680BDC2
:1047D00080B58AB000AFF860B9607A603B60BB68B2
:1047E0003B6201237B620123FB6107E03A6A7B683D
:1047F000B2FBF3F33B62FB690133FB613A6A7B680E
:104800009A42F3D23A68FB699A4201D93B68FB614C
:104810007B6B03F00103002B25D13B6B002B22D0D7
:104820007B6B03F00203002B05D03B68002B02D109
:104830003023FB7601E02023FB760BE03B6B013B52
:104840003B63FB7E1946F868FFF784FFFB68DB6873
:10485000002B07DB3B6B002B05D0FA693B6B9A42C0
:10486000ECD300E000BFFB68DB68002B55DB3B6846
:10487000012B03D93B68013B3B6009E0BA687B6AC6
:10488000B2FBF3F37B617A697B689A4200D205E060
:104890007B6A7A6802FB03F37B62E8E7BA687B6AAB
:1048A000B2FBF3F37B617B697A6A02FB03F3BA68BC
:1048B000D31ABB601B4A7B6913441B781946F868FE
:1048C000FFF748FFFB68DB68002B08DB7A6A7B6830
:1048D000B2FBF3F37B627B6A002BDFD100E000BF09
:1048E0007B6B03F00103002B17D03B6B002B14D024
:1048F0000AE03B6B013B3B632021F868FFF72AFF8E
:10490000FB68DB68002B07DB3B6B002B05D0FA69EB
:104910003B6B9A42EDD300E000BF00BF2837BD4695
:1049200080BD00BFA05C030080B588B002AFF86016
:10493000B9607A603B60BB68002BB8BF5B423B61EB
:1049400001237B6107E07B683A6992FBF3F33B61EB
:104950007B6901337B617B683A699A42F3DA3A6892
:104960007B699A4201D93B687B613B6A002B0AD084
:10497000BB68002B04DB7B6A03F00403002B02D02E
:104980003B6A013B3B627B6A03F00203002B02D0CF
:104990003B68002B1CD07B6A03F00103002B17D16E
:1049A0003B6A002B14D00AE03B6A013B3B622021AA
:1049B000F868FFF7CFFEFB68DB68002B07DB3B6A7C
:1049C000002B05D07A693B6A9A42EDD300E000BF24
:1049D000FB68DB68002B4ADBBB68002B07DABB688F
:1049E0005B42BB602D21F868FFF7B4FE08E07B6AEC
:1049F00003F00403002B03D02B21F868FFF7AAFE75
:104A0000FB68DB68002B32DB7B6A03F00203002BC0
:104A10001FD07B6A03F00103002B1AD13B68002BE7
:104A200017D13B6A002B14D00AE03B6A013B3B6282
:104A30003021F868FFF78EFEFB68DB68002B07DB90
:104A40003B6A002B05D07A693B6A9A42EDD300E0BD
:104A500000BFFB68DB68002B09DBB9687B6A019348
:104A60003B6A00933B687A68F868FFF7B1FE00BFC5
:104A70001837BD4680BD00BF80B5A2B002AFF86058
:104A8000B9607A6007F110033B6540237B65002322
:104A9000BB65FB683B660023FB65BB681B7887F83A
:104AA0007F30BB680133BB6097F87F30002B00F08C
:104AB000618197F87F30252B40F04F8100233B67C1
:104AC0000123BB67BB681B7887F87F3097F87F307E
:104AD000233B0D2B3ED801A252F823F0454B020098
:104AE000554B0200554B0200554B0200554B02003E
:104AF000554B0200554B0200554B0200354B02004E
:104B0000554B0200154B0200554B0200554B02005D
:104B1000254B02003B6F43F001033B67BB68013349
:104B2000BB601AE03B6F43F002033B67BB68013395
:104B3000BB6012E03B6F43F004033B67BB6801338B
:104B4000BB600AE03B6F43F008033B67BB6801337F
:104B5000BB6002E00023BB6700BFBB6F002BB1D17D
:104B60000023FB66BB681B7887F87F3097F87F309F
:104B70002F2B12D997F87F30392B0ED8BB68013311
:104B8000BB60FA6E13469B0013445B001A4697F80D
:104B90007F301344303BFB66E4E700237B67BB6850
:104BA0001B7887F87F3097F87F302E2B1DD1BB689C
:104BB0000133BB60BB681B7887F87F3097F87F3084
:104BC0002F2B12D997F87F30392B0ED8BB680133C1
:104BD000BB607A6F13469B0013445B001A4697F83C
:104BE0007F301344303B7B67E4E7BB681B7887F872
:104BF0007F3097F87F306C2B03D097F87F30682B8D
:104C000007D1BB680133BB60BB681B7887F87F3076
:104C1000EFE797F87F30642B28D0642B07DC582B04
:104C20004AD0632B0FD0252B00F08C8091E0732BA2
:104C300055D0732B02DC702B71D08AE0752B28D0F5
:104C4000782B39D085E07B681B68191D7A68116064
:104C50001B68BB67BB6F87F8673097F8672007F161
:104C6000500311461846FFF775FD72E07B681B681C
:104C7000191D7A6811601B68BB6707F150003B6F14
:104C80000193FB6E00937B6F0A22B96FFFF74CFE16
:104C90005FE07B681B68191D7A6811601B68BB6741
:104CA000B96F07F150003B6F0193FB6E00937B6F70
:104CB0000A22FFF78DFD4CE07B681B68191D7A689E
:104CC00011601B68BB67B96F07F150003B6F019320
:104CD000FB6E00937B6F1022FFF77AFD39E07B6853
:104CE0001B68191D7A6811601B68BB66BB6E1B7858
:104CF00087F87F30BB6E0133BB6697F87F30002B9F
:104D00000BD097F87F2007F1500311461846FFF7A4
:104D100021FDFB6D002BE9DA1BE000BF19E07B6889
:104D20001B68191D7A6811601B68BB67B96F07F1B2
:104D30005000002301930823009308231022FFF75B
:104D400047FD06E007F1500325211846FFF702FD55
:104D500000BFBB680133BB6007E097F87F2007F115
:104D6000500311461846FFF7F5FCFB6D002BBFF60C
:104D700094AE00E000BFFB6D002B0DDDBB6D002B82
:104D800006D0BA6D07F110031946F868FEF776FEF3
:104D9000FB6DBA6D1344FB65FB6D18468037BD464D
:104DA00080BD00BF0EB480B585B000AF786007F15C
:104DB0002003BB6007F108031A46F9697868FFF71A
:104DC0005BFEF860FB6818461437BD46BDE88040BE
:104DD00003B070470649074A074B9B1A03DD043BA3
:104DE000C858D050FBDC00F021F8FEF737FA00007D
:104DF00034720300E02000203C220020FEE7FEE7A2
:104E0000FEE7FEE7FEE7FEE7FEE7FEE7FEE7FEE77A
:104E100080B400AF034B044A1A6000BFBD465DF882
:104E2000047B7047F42000200090D00380B500AFD1
:104E300000F020F90346002B06D07E4A7E4B1B680B
:104E40001B0A03F01F03136000F046F90346002B12
:104E500002D07A4B7A4A1A6000F060F90346002BC0
:104E600006D0784A784B1B6803F460435B0B1360F1
:104E700000F086F90346002B05D0744A734BDB68BB
:104E800023F08073D36000F09DF90346002B0ED011
:104E90004FF080430022C3F80C214FF080430022E2
:104EA000C3F810214FF080430022C3F8382500F0EA
:104EB000BBF90346002B02D0654B03221A6000F0B9
:104EC000D5F90346002B0BD0624B05221A60624BCA
:104ED00001221A60614B00221A60614B3F221A6066
:104EE00000F0E6F90346002B76D05E4A4FF080537F
:104EF000D3F80434C2F820355A4A4FF08053D3F81F
:104F00000834C2F82435574A4FF08053D3F80C3494
:104F1000C2F82835534A4FF08053D3F81034C2F802
:104F20002C35504A4FF08053D3F81434C2F8303542
:104F30004C4A4FF08053D3F81834C2F83435494AFC
:104F40004FF08053D3F81C34C2F84035454A4FF037
:104F50008053D3F82034C2F84435424A4FF080538E
:104F6000D3F82434C2F848353E4A4FF08053D3F882
:104F70002834C2F84C353B4A4FF08053D3F82C34D8
:104F8000C2F85035374A4FF08053D3F83034C2F866
:104F90005435344A4FF08053D3F83434C2F8603576
:104FA000304A4FF08053D3F83834C2F864352D4A74
:104FB0004FF08053D3F83C34C2F86835294A4FF09B
:104FC0008053D3F84034C2F86C35264A4FF08053F2
:104FD000D3F84434C2F8703500F08CF90346002B46
:104FE00005D0214A214B1B6803F04F03136000F0EA
:104FF000B3F90346002B0DD04FF08043D3F80034B3
:1050000003F00103002B05D04FF080436FF0010245
:10501000C3F80024164A164BD3F8883043F47003C3
:10502000C2F88830BFF34F8FBFF36F8FFFF7F0FEEA
:1050300000BF80BD403501402403001074C007400C
:105040000DF0ADBA3C05004044020010F0ED00E068
:10505000A0050040105600408856004018560040F9
:105060001456004000C00040E40E004058020010FA
:1050700000ED00E080B400AF144B1B68DBB2062BE0
:105080001DD1134B1B6803F00F03002B17D1114BDD
:105090001B6803F0F003302B01D1012310E00D4B0E
:1050A0001B6803F0F003402B01D1012308E0094BFA
:1050B0001B6803F0F003502B01D1012300E0002313
:1050C0001846BD465DF8047B704700BFE00F00F056
:1050D000E40F00F0E80F00F080B400AF0C4B1B6849
:1050E000DBB2062B0DD10B4B1B6803F00F03002B1B
:1050F00007D1094B1B6803F0F003302B01D10123CA
:1051000000E000231846BD465DF8047B704700BFF1
:10511000E00F00F0E40F00F0E80F00F080B400AF03
:10512000144B1B68DBB2062B1DD1134B1B6803F01D
:105130000F03002B17D1114B1B6803F0F003302B2A
:1051400001D1012310E00D4B1B6803F0F003402B4D
:1051500001D1012308E0094B1B6803F0F003502B39
:1051600001D1012300E000231846BD465DF8047B11
:10517000704700BFE00F00F0E40F00F0E80F00F010
:1051800080B400AF0C4B1B68DBB2062B0DD10B4B70
:105190001B6803F00F03002B07D1094B1B6803F0BA
:1051A000F003302B01D1012300E000231846BD4657
:1051B0005DF8047B704700BFE00F00F0E40F00F0E3
:1051C000E80F00F080B400AF144B1B68DBB2062B75
:1051D0001DD1134B1B6803F00F03002B17D1114B8C
:1051E0001B6803F0F003302B01D1012310E00D4BBD
:1051F0001B6803F0F003402B01D1012308E0094BA9
:105200001B6803F0F003502B01D1012300E00023C1
:105210001846BD465DF8047B704700BFE00F00F004
:10522000E40F00F0E80F00F080B400AF0C4B1B68F7
:10523000DBB2062B0DD10B4B1B6803F00F03002BC9
:1052400007D1094B1B6803F0F003302B01D1012378
:1052500000E000231846BD465DF8047B704700BFA0
:10526000E00F00F0E40F00F0E80F00F080B400AFB2
:105270000C4B1B68DBB2062B0DD10B4B1B6803F0EC
:105280000F03002B07D1094B1B6803F0F003302BF1
:1052900001D1012300E000231846BD465DF8047BE0
:1052A000704700BFE00F00F0E40F00F0E80F00F0DF
:1052B00080B400AF0C4B1B68DBB2062B0DD10B4B3F
:1052C0001B6803F00F03002B07D1094B1B6803F089
:1052D000F003502B01D1012300E000231846BD4606
:1052E0005DF8047B704700BFE00F00F0E40F00F0B2
:1052F000E80F00F080B400AF144B1B68DBB2062B44
:105300001DD1134B1B6803F00F03002B17D1114B5A
:105310001B6803F0F003302B01D1012310E00D4B8B
:105320001B6803F0F003402B01D1012308E0094B77
:105330001B6803F0F003502B01D1012300E0002390
:105340001846BD465DF8047B704700BFE00F00F0D3
:10535000E40F00F0E80F00F080B400AF144B1B68BE
:10536000DBB2062B1DD1134B1B6803F00F03002B80
:1053700017D1114B1B6803F0F003302B01D101232F
:1053800010E00D4B1B6803F0F003402B01D101230B
:1053900008E0094B1B6803F0F003502B01D10123F7
:1053A00000E000231846BD465DF8047B704700BF4F
:1053B000E00F00F0E40F00F0E80F00F080B483B0DD
:1053C00000AF0346FB71094997F907305B09FA7989
:1053D00002F01F02012000FA02F241F8232000BF70
:1053E0000C37BD465DF8047B704700BF00E100E06C
:1053F00080B483B000AF0346FB71094997F90730C9
:105400005B09FA7902F01F02012000FA02F2203350
:1054100041F8232000BF0C37BD465DF8047B704780
:1054200000E100E080B483B000AF0346FB7109499E
:1054300097F907305B09FA7902F01F02012000FAA0
:1054400002F2403341F8232000BF0C37BD465DF81F
:10545000047B704700E100E080B483B000AF0346F6
:105460003960FB7197F90730002B0BDA0D49FB7996
:1054700003F00F03043B3A68D2B25201D2B20B449C
:105480001A7609E0084997F907303A68D2B2520112
:10549000D2B20B4483F8002300BF0C37BD465DF841
:1054A000047B704700ED00E000E100E080B483B0D1
:1054B00000AF0346FB7197F90730002B0ADA0D4A5B
:1054C000FB7903F00F03043B13441B7EDBB25B0943
:1054D000DBB208E0084A97F90730134493F8003329
:1054E000DBB25B09DBB218460C37BD465DF8047BC6
:1054F000704700BF00ED00E000E100E080B483B041
:1055000000AF78607B685B6818460C37BD465DF875
:10551000047B70472BDF704700BF18462CDF7047B5
:1055200000BF18462DDF704700BF18462EDF7047BA
:1055300000BF18462FDF704700BF184630DF7047A6
:1055400000BF184633DF704700BF184634DF70478E
:1055500000BF184631DF704700BF184632DF704782
:1055600000BF184635DF704700BF184636DF70476A
:1055700000BF184637DF704700BF184638DF704756
:1055800000BF184639DF704700BF18463ADF704742
:1055900000BF18463BDF704700BF18463CDF70472E
:1055A00000BF18463DDF704700BF18463FDF704719
:1055B00000BF184640DF704700BF184641DF704704
:1055C00000BF18463EDF704700BF184620DF704717
:1055D00000BF184621DF704700BF184622DF704722
:1055E00000BF184623DF704700BF184624DF70470E
:1055F00000BF184625DF704700BF184626DF7047FA
:1056000000BF184627DF704700BF184642DF7047CB
:1056100000BF184643DF704700BF184644DF70479D
:1056200000BF184648DF704700BF184649DF704783
:1056300000BF184629DF704700BF184628DF7047B3
:1056400000BF18462ADF704700BF184645DF704785
:1056500000BF184646DF704700BF184647DF704757
:1056600000BF184610DF704700BF184611DF7047B3
:1056700000BF184612DF704700BF184613DF70479F
:1056800000BF184680B483B000AF0346FB7197F9A2
:1056900007301F2B0CDC97F90730114A22FA03F36D
:1056A00003F00103002B14BF01230023DBB210E041
:1056B00097F907303F2B0BDC97F90730203B01228D
:1056C00002FA03F3002B14BF01230023DBB200E036
:1056D000012318460C37BD465DF8047B704700BFB8
:1056E000FC06FFBD80B483B000AF78607B68072BF9
:1056F00001D900230BE07B68002B05D07B68012BD0
:1057000002D07B68042B01D1002300E0012318465E
:105710000C37BD465DF8047B704700BF80B582B092
:1057200000AF0346FB7197F907301846FFF7AAFF51
:105730000346002B02D142F201032CE097F9073017
:105740001846FFF7B3FE03461846FFF7CBFF0346A4
:10575000002B02D142F202031DE0114B9B68002B8B
:1057600013D097F907305B0997F9072052090C49C4
:1057700051F82220F97901F01F01012000FA01F10E
:105780000A43074941F8232004E097F907301846F7
:10579000FFF714FE002318460837BD4680BD00BF42
:1057A000302E002080B582B000AF0346FB7197F920
:1057B00007301846FFF766FF0346002B02D142F27E
:1057C00001031EE0114B9B68002B14D097F90730A2
:1057D0005B0997F9072052090C4951F82210FA7910
:1057E00002F01F02012000FA02F2D2430A400749E8
:1057F00041F8232004E097F907301846FFF7F8FD39
:10580000002318460837BD4680BD00BF302E00205B
:1058100080B582B000AF0346FB7197F90730184698
:10582000FFF730FF0346002B06D097F907301846E4
:10583000FFF7F8FD002301E042F2010318460837A4
:10584000BD4680BD80B582B000AF03463960FB71B4
:1058500097F907301846FFF715FF0346002B02D1D2
:1058600042F201030FE03868FFF73CFF0346002BCC
:1058700002D142F2020306E097F907303968184670
:10588000FFF7EAFD002318460837BD4680BD00BF7C
:1058900080B586B000AF0346FB7107F108031549D8
:1058A000184602F0BDFC18E007F108031846FFF7A0
:1058B00025FE78617B691B683B617B695968FA79D1
:1058C0003B69104698470346002B01D111230DE098
:1058D00007F10803184602F0C1FC07F10803184657
:1058E000FFF70CFE0346002BDED1002318461837C5
:1058F000BD4680BDE85C030080B586B000AF0346BE
:10590000FB7107F108031249184602F089FC13E005
:1059100007F108031846FFF7F1FD78617B691B6802
:105920003B617B695968FA793B691046984707F1F2
:105930000803184602F092FC07F108031846FFF727
:10594000DDFD0346002BE3D100BF1837BD4680BD07
:10595000F45C030080B582B000AF1620FFF7DEFED6
:1059600078607B683B603B68002B04D0044A992137
:10597000386800F057FC00BF0837BD4680BD00BF47
:10598000B85C030080B582B000AF1620FFF70AFFB5
:1059900078607B683B603B68002B04D0044AA521FB
:1059A000386800F03FFC00BF0837BD4680BD00BF2F
:1059B000B85C030080B584B000AF07211620FFF764
:1059C00041FFF860FB68BB60BB68002B04D00C4A49
:1059D000B821B86800F026FC07211520FFF732FF38
:1059E000F860FB687B607B68002B04D0044ABA2116
:1059F000786800F017FC00BF1037BD4680BD00BFBF
:105A0000B85C030080B582B000AF1C4B1B78002B44
:105A100001D008232DE01A4B01221A700020FFF755
:105A200037FF0346112B01D1002322E00020FFF7AE
:105A300063FF144A3B46106818603B4612491846FB
:105A4000FFF710FE78607B68002B01D07B6810E0C8
:105A50000A4B01221A700A4B00221A700B4B0022CB
:105A60001A70FFF7A7FFFFF775FF0120FFF744FF4C
:105A7000002318460837BD4680BD00BF69240020BA
:105A80006B240020E45C0300916402006A2400207F
:105A900080B582B000AF174B1B7883F00103DBB2F7
:105AA000002B01D0082321E0134B01221A700120A2
:105AB000FFF7EEFE0346112B01D1002316E0022072
:105AC000FFF71AFFFFF7D2FD78607B68002B01D04B
:105AD0007B680BE0074B00221A70074B00221A70FC
:105AE000FFF750FF0320FFF707FF00231846083792
:105AF000BD4680BD692400206B24002080B500AF26
:105B00000A4B1B7883F00103DBB2002B01D0082382
:105B10000AE0074B1B78002B03D0FFF7B9FF0346C1
:105B200002E0FFF76FFF0346184680BD6B2400209C
:105B30006924002080B400AF034B1B781846BD4693
:105B40005DF8047B704700BF6924002080B500AF7A
:105B5000074B1B7883F00103DBB2002B05D1FFF765
:105B600011FF044B01221A7000E000BF80BD00BF8E
:105B7000692400206A24002080B582B000AF134B56
:105B80001B7883F00103DBB2002B1BD1104B1B7879
:105B900083F00103DBB2002B14D11620FFF738FE8F
:105BA00078607B683B603B68002B05D0094A4FF466
:105BB000AD71386800F036FBFFF7CCFE034B0022D6
:105BC0001A7000E000BF0837BD4680BD6A2400207F
:105BD00069240020B85C030080B400AF0A4B1B7836
:105BE00083F00103DBB2002B03D1084B1B78002BA1
:105BF00001D0012300E0002303F00103DBB21846CB
:105C0000BD465DF8047B7047692400206A240020AB
:105C100080B584B000AF3B461049184602F000FB47
:105C200010E03B461846FFF769FCF860FB681B680C
:105C3000BB60FB685A68BB68104698473B461846ED
:105C400002F00CFB3B461846FFF758FC0346002BBE
:105C5000E7D100BF1037BD4680BD00BF005D030027
:105C600080B500AFFFF7D4FF00BF80BD6CDF704789
:105C700000BF18466DDF704700BF18466EDF7047E3
:105C800000BF18466FDF704700BF184670DF7047CF
:105C900000BF184671DF704700BF184672DF7047BB
:105CA00000BF184673DF704700BF184674DF7047A7
:105CB00000BF184675DF704700BF184676DF704793
:105CC00000BF184677DF704700BF184678DF70477F
:105CD00000BF184679DF704700BF18467ADF70476B
:105CE00000BF18467BDF704700BF18467CDF704757
:105CF00000BF18467DDF704700BF18467EDF704743
:105D000000BF18467FDF704700BF184680DF70472E
:105D100000BF184681DF704700BF184682DF70471A
:105D200000BF184683DF704700BF184684DF704706
:105D300000BF184685DF704700BF184686DF7047F2
:105D400000BF184687DF704700BF184688DF7047DE
:105D500000BF184689DF704700BF18468EDF7047C6
:105D600000BF18468ADF704700BF18468BDF7047B8
:105D700000BF18468CDF704700BF18468DDF7047A4
:105D800000BF18468FDF704700BF184690DF70478E
:105D900000BF1846B0DF704700BF1846B1DF70473C
:105DA00000BF1846B2DF704700BF1846B3DF704728
:105DB00000BF1846B4DF704700BF184694DF704735
:105DC00000BF184695DF704700BF184696DF704742
:105DD00000BF184697DF704700BF184699DF70472D
:105DE00000BF18469ADF704700BF18469BDF704718
:105DF00000BF18469CDF704700BF18469DDF704704
:105E000000BF184698DF704700BF18469EDF7047F6
:105E100000BF1846A0DF704700BF1846A1DF7047DB
:105E200000BF1846A2DF704700BF1846A3DF7047C7
:105E300000BF1846A4DF704700BF1846A5DF7047B3
:105E400000BF1846A6DF704700BF1846A7DF70479F
:105E500000BF1846A8DF704700BF1846A9DF70478B
:105E600000BF1846AADF704700BF1846ABDF704777
:105E700000BF1846ACDF704700BF1846ADDF704763
:105E800000BF184660DF704700BF184669DF7047E3
:105E900000BF184661DF704700BF184662DF7047D9
:105EA00000BF184663DF704700BF184664DF7047C5
:105EB00000BF184665DF704700BF184666DF7047B1
:105EC00000BF184667DF704700BF184668DF70479D
:105ED00000BF184680B483B000AF78607B685B6811
:105EE00018460C37BD465DF8047B704780B483B01C
:105EF00000AF78607B68002B01D10E2304E0054BD6
:105F00001A467B681A60002318460C37BD465DF8B8
:105F1000047B7047E020002090B587B000AF0346B7
:105F20003960FB713868FFF7E1FF78617B69002B0E
:105F300001D07B69BAE007F108030C220021184662
:105F40000EF081FCFB793B720123BB720323BB8102
:105F50003B681A6807F1080319462020FFF796FFEF
:105F600078617B69002B0DD0524B1B881B0443F0DA
:105F70000104786901F056FF03461A464E4920464F
:105F800003F0DEFB07F108030C22002118460EF097
:105F90005AFC01233B7200237B720023BB723B68D7
:105FA0001A6807F1080319464020FFF76FFF786170
:105FB0007B69002B0DD03F4B1B881B0443F0010471
:105FC000786901F02FFF03461A463C49204603F04A
:105FD000B7FB07F108030C22002118460EF033FC32
:105FE00000233B723B681A6807F108031946012039
:105FF000FFF74CFF78617B69002B0DD02D4B1B8880
:106000001B0443F00104786901F00CFF03461A46B3
:106010002B49204603F094FB07F108030C220021D2
:1060200018460EF010FC4FF4B063BB603B681A6872
:1060300007F108031946A120FFF728FF78617B6963
:10604000002B0DD01B4B1B881B0443F00104786907
:1060500001F0E8FE03461A461A49204603F070FB99
:1060600007F108030C22002118460EF0ECFB3B7AE6
:106070006FF300033B723B681A6807F10803194687
:10608000A020FFF703FF78617B69002B0DD0094B3F
:106090001B881B0443F00104786901F0C3FE03462A
:1060A0001A460949204603F04BFB002318461C37CB
:1060B000BD4690BDF4210020185D0300605D030023
:1060C000AC5D0300F85D03004C5E030080B483B058
:1060D00000AF4FF08053D3F80C319B027B607B689C
:1060E00003F1005318460C37BD465DF8047B70473A
:1060F00090B585B000AF78607B681B68FB607868FE
:10610000FFF7C0FEB8607B681A68FB689A421AD035
:10611000184B1B881B0443F002007B681B68FA685D
:10612000154903F021FB134B1B881B0443F00204A9
:10613000FFF7CCFF02467B681B68D31A1A460F494B
:10614000204603F0FDFABB68002B0DD0094B1B88DD
:106150001B0443F00104B86801F064FE03461A46CC
:106160000749204603F0ECFABB6818461437BD46D1
:1061700090BD00BFF4210020A05E0300D05E0300AC
:10618000F45E030080B598B000AF78603823A7F8BC
:106190004E3007F14E0207F10C0311461846FFF787
:1061A00079FEF865FB6D002B03D0FB6D052B2AD122
:1061B0002FE007F10C03BB6507F1440317491846AC
:1061C00002F02EF816E007F144031846FFF782FEAE
:1061D00078657B6D1B683B653B6D002B05D07B6D47
:1061E0005A683B6D1146B86D984707F1440318464D
:1061F00002F034F807F144031846FFF76BFE03463C
:10620000002BE0D1C2E7064A4FF49171F86D00F01F
:1062100009F800BF6037BD4680BD00BF445F030082
:10622000145F030080B588B000AFF860B9607A6091
:10623000BB689BB2BB827B68BB61FB68FB6107F1FB
:1062400014031A46002144F2010000F021F900BFB6
:106250002037BD4680BD00BF80B586B000AF7860F6
:106260000023BB8100233B617B687B6107F10C034A
:106270001A46002144F2010000F00AF900BF183765
:10628000BD4680BD80B487B000AFF860B9607A6069
:106290000123FB75FB7D214AFB6813601F4ABB6825
:1062A00053601E4A7B689360FB6844F2010293428C
:1062B00012D044F20202934222D17B68174AD36083
:1062C000164BDB681B881A46144B9A61134BDB682C
:1062D0005B68124AD36113E07B68104A13610F4B6D
:1062E0001B699B680D4A53610C4B1B691B881A463E
:1062F0000A4B9A61094B1B695B68084AD36100BF6E
:1063000072B600BFFB7DDBB2002BFBD162B600BFD3
:106310001C37BD465DF8047B704700BF6C2400202D
:106320002BDF704700BF18462CDF704700BF1846B0
:106330002DDF704700BF18462EDF704700BF18469C
:106340002FDF704700BF184630DF704700BF184688
:1063500033DF704700BF184634DF704700BF184670
:1063600031DF704700BF184632DF704700BF184664
:1063700035DF704700BF184636DF704700BF18464C
:1063800037DF704700BF184638DF704700BF184638
:1063900039DF704700BF18463ADF704700BF184624
:1063A0003BDF704700BF18463CDF704700BF184610
:1063B0003DDF704700BF18463FDF704700BF1846FB
:1063C00040DF704700BF184641DF704700BF1846E6
:1063D0003EDF704700BF184620DF704700BF1846F9
:1063E00021DF704700BF184622DF704700BF184604
:1063F00023DF704700BF184624DF704700BF1846F0
:1064000025DF704700BF184626DF704700BF1846DB
:1064100027DF704700BF184642DF704700BF1846AD
:1064200043DF704700BF184644DF704700BF18467F
:1064300048DF704700BF184649DF704700BF184665
:1064400029DF704700BF184628DF704700BF184695
:106450002ADF704700BF184645DF704700BF184667
:1064600046DF704700BF184647DF704700BF184639
:1064700010DF704700BF184611DF704700BF184695
:1064800012DF704700BF184613DF704700BF184681
:10649000B0B588B002AFF860B9607A6003F0D2FCA2
:1064A00000BF03F095FA0346002BFAD1FB6841F2D6
:1064B0000102934219D041F20102934202D8012B0A
:1064C00009D04AE044F20102934228D044F2020289
:1064D000934214D041E02E4B1B881B0443F0010370
:1064E0002C49184603F01CF942E0294B1B881B0479
:1064F00043F001032849184603F012F938E07B689D
:106500007B61234B1B881B0443F001007B695B68A4
:106510001A467B691B88214903F026F928E07B682D
:106520003B611B4B1B881B0443F001043B699D68C6
:106530003B699B68184601F075FC034619463B69A8
:106540005B681A463B691B88019300920B462A46FA
:106550001349204603F036F90AE00D4B1B881B0453
:1065600043F00103BA680F49184603F0E9F800BF89
:106570000D4B1B6803F00103002B00D0FFDE7A688F
:10658000B968F868FFF77EFE00BF1837BD46B0BD9A
:1065900000220020545F0300745F0300985F030033
:1065A000B45F0300CC5F0300F0ED00E080B483B083
:1065B00000AF0346FB7197F90730002B0ADA0D4A4A
:1065C000FB7903F00F03043B13441B7EDBB25B0932
:1065D000DBB208E0084A97F90730134493F8003318
:1065E000DBB25B09DBB218460C37BD465DF8047BB5
:1065F000704700BF00ED00E000E100E02BDF7047D6
:1066000000BF18462CDF704700BF18462DDF7047CB
:1066100000BF18462EDF704700BF18462FDF7047B7
:1066200000BF184630DF704700BF184633DF7047A1
:1066300000BF184634DF704700BF184631DF70478F
:1066400000BF184632DF704700BF184635DF70477D
:1066500000BF184636DF704700BF184637DF704767
:1066600000BF184638DF704700BF184639DF704753
:1066700000BF18463ADF704700BF18463BDF70473F
:1066800000BF18463CDF704700BF18463DDF70472B
:1066900000BF18463FDF704700BF184640DF704715
:1066A00000BF184641DF704700BF18463EDF704705
:1066B00000BF184620DF704700BF184621DF704733
:1066C00000BF184622DF704700BF184623DF70471F
:1066D00000BF184624DF704700BF184625DF70470B
:1066E00000BF184626DF704700BF184627DF7047F7
:1066F00000BF184642DF704700BF184643DF7047AF
:1067000000BF184644DF704700BF184648DF704797
:1067100000BF184649DF704700BF184629DF7047A1
:1067200000BF184628DF704700BF18462ADF7047B1
:1067300000BF184645DF704700BF184646DF704768
:1067400000BF184647DF704700BF184680B483B0CB
:1067500000AFEFF310833B603B687B6072B67B68F1
:1067600018460C37BD465DF8047B704780B400AF17
:1067700062B600BFBD465DF8047B704780B584B04B
:1067800000AF7860FFF7E2FFF860164B9B68002BC4
:106790001BD1144B01229A60134BD3F88020134B6A
:1067A0001340104A1360104B104AC3F880200E4B60
:1067B000D3F884300B4A53600B4B4FF0FF32C3F8D1
:1067C00084207B6800221A7002E07B6801221A7024
:1067D000FB68002B01D1FFF7C9FF002318461037D3
:1067E000BD4680BD302E002000E100E0FC06FFBD6C
:1067F00080B584B000AF0346FB710F4B9B68002B44
:1068000015D0FB79002B12D1FFF7A0FFF8600B4ADF
:10681000094B1B681360094A074B5B685360064BC2
:1068200000229A60FB68002B01D1FFF79FFF002335
:1068300018461037BD4680BD302E002000E100E034
:1068400080B400AF72B6054B1B680133034A136076
:1068500000BFBD465DF8047B704700BF8C2400205C
:1068600080B400AF074B1B68013B064A1360054B21
:106870001B68002B00D162B600BFBD465DF8047BEB
:10688000704700BF8C24002080B582B000AF7860D4
:106890007868FFF773FF00BF0837BD4680BD00BFB3
:1068A00080B582B000AF0346FB71FB791846FFF755
:1068B0009FFF00BF0837BD4680BD00BF80B485B0D4
:1068C00000AFEFF305833B603B68C3F30803BB6095
:1068D000BB68002B0DD1EFF31483FB60FB687B607A
:1068E0007B6803F00103002B0CBF01230023DBB204
:1068F00000E0012318461437BD465DF8047B70475D
:1069000080B584B000AFEFF305837B607B68C3F391
:106910000803FB60FB68002B0AD0FB68103BBB60E0
:10692000BB685BB21846FFF741FE0346DBB200E0EE
:106930000F2318461037BD4680BD00BF80B584B018
:1069400000AF03463960FB80FB883B813B68FB60FE
:1069500007F108031A46002144F20200FFF798FDF0
:1069600000BF1037BD4680BD80B483B000AF7860F3
:106970000B467B807B681A687B88012101FA03F350
:106980001A437B681A6000BF0C37BD465DF8047B74
:10699000704700BF80B483B000AF78600B467B8047
:1069A0007B681A687B88012101FA03F3DB431A40F4
:1069B0007B681A6000BF0C37BD465DF8047B7047EA
:1069C00080B483B000AF78600B467B807B88012267
:1069D00002FA03F31A467B681340002B14BF01230D
:1069E0000023DBB218460C37BD465DF8047B7047C8
:1069F00080B584B000AF78600023FB810CE0FB8998
:106A000019467868FFF7DCFF0346002B01D0FB89AD
:106A100007E0FB890133FB81FB891F2BEFD94FF680
:106A2000FF7318461037BD4680BD00BF80B586B0E5
:106A300002AFF860B96011461A460B46FB80134658
:106A40007B71FA887B79009313460122B968F86854
:106A500000F004F800BF1037BD4680BD80B586B099
:106A600000AFF860B9607A607B80FB68002B3AD099
:106A7000BB68002B37D07B68002B34D000237B61B0
:106A80002EE07B695B00FA6813441B887A889A427F
:106A900023D100233B611BE097F82030002B0AD064
:106AA0003B699B00BA6813447A6992B21146184652
:106AB000FFF75AFF09E03B699B00BA6813447A6903
:106AC00092B211461846FFF765FF3B6901333B61FF
:106AD0003A697B689A42DFD305E07B6901337B61C9
:106AE0007B691F2BCDD91837BD4680BD80B586B0D8
:106AF00000AFF860B9603B601346FB80FB68002B79
:106B00001FD000237B6119E07B695B00FA681344A6
:106B10001B88FA889A420ED13B68002B03D07B6910
:106B2000DAB23B681A707B699BB21946B868FFF706
:106B300047FF03460CE07B6901337B617B691F2BB8
:106B4000E2D93B68002B02D03B6820221A70002358
:106B500018461837BD4680BD80B586B000AFF860D6
:106B6000B9601346FB80FB68002B18D000237B61C3
:106B700012E07B695B00FA6813441B88FA889A422A
:106B800007D17B699BB21946B868FFF719FF034626
:106B900006E07B6901337B617B691F2BE9D9002308
:106BA00018461837BD4680BD80B596B000AFF86076
:106BB000B9607A6000233B61BB68002B1FD00023C3
:106BC0007B6519E07B6D9BB219467868FFF7F8FE8C
:106BD0000346002B0DD03B695A1C3A617A6D520076
:106BE000B9680A4412885B0007F158010B4423F886
:106BF000442C7B6D01337B657B6D1F2BE2D9FB68D9
:106C0000184607F11003442219460DF011FEF868EA
:106C10005837BD4680BD00BF80B584B000AF7860F6
:106C20000023FB600023BB600EE0BB689BB21946EB
:106C30007868FFF7C5FE0346002B02D0FB680133DE
:106C4000FB60BB680133BB60BB681F2BEDD9FB68E1
:106C500018461037BD4680BD2BDF704700BF184671
:106C60002CDF704700BF18462DDF704700BF184665
:106C70002EDF704700BF18462FDF704700BF184651
:106C800030DF704700BF184633DF704700BF18463B
:106C900034DF704700BF184631DF704700BF184629
:106CA00032DF704700BF184635DF704700BF184617
:106CB00036DF704700BF184637DF704700BF184601
:106CC00038DF704700BF184639DF704700BF1846ED
:106CD0003ADF704700BF18463BDF704700BF1846D9
:106CE0003CDF704700BF18463DDF704700BF1846C5
:106CF0003FDF704700BF184640DF704700BF1846AF
:106D000041DF704700BF18463EDF704700BF18469E
:106D100020DF704700BF184621DF704700BF1846CC
:106D200022DF704700BF184623DF704700BF1846B8
:106D300024DF704700BF184625DF704700BF1846A4
:106D400026DF704700BF184627DF704700BF184690
:106D500042DF704700BF184643DF704700BF184648
:106D600044DF704700BF184648DF704700BF184631
:106D700049DF704700BF184629DF704700BF18463B
:106D800028DF704700BF18462ADF704700BF18464B
:106D900045DF704700BF184646DF704700BF184602
:106DA00047DF704700BF184680B588B000AF7860F5
:106DB00039607B681B78012B14D104233B767B68F8
:106DC0005B681B783B77012219491A4805F0F2FFEE
:106DD000194B01221A70194B1B6807F11802104653
:106DE000984720E07B681B78022B10D102233B746C
:106DF0007B68DB687B6101220D490E4805F0DAFFF4
:106E00000E4B1B6807F11002104698470BE07B6899
:106E10001B78002B07D103233B72084B1B6807F13B
:106E200008021046984700BF2037BD4680BD00BF0E
:106E300094240020F820002095240020982400208D
:106E4000B0B58EB000AFF860B9607A60FB702E4BC1
:106E500007F114041D460FCD0FC495E80F0084E818
:106E60000F00FB685B69FB62FB681B7C002B14BF97
:106E700001230023DBB287F82830FB7887F8303015
:106E8000FB685B7C002B01D00E2300E0002387F819
:106E90002930FB68DB68FB61FB689B683B62FB6831
:106EA0001B68BB61FB685B687B61184A7B68136089
:106EB000174B00221A7007F11403164A1946164898
:106EC00005F042FC78637B6B002B01D07B6B16E0F6
:106ED000FB681B68B3F1FF3F10D097F8313083F0A7
:106EE0000103DBB2002B02D00B4806F029F8012287
:106EF0000A49094805F05EFF034600E000231846F2
:106F00003837BD46B0BD00BFE45F030098240020C1
:106F100095240020A96D0200F82000209424002070
:106F200080B485B000AF78600023FB600A4B1B780B
:106F3000DBB2002B07D0094B1A787B681A70064B1E
:106F400000221A7001E00523FB60FB681846143725
:106F5000BD465DF8047B70479524002094240020F2
:106F600080B584B000AF0346FB710C4AFB79137007
:106F700001220A490A4805F043FDF860FB68112B1D
:106F800001D1042305E0FB68002B01D0032300E0BE
:106F9000002318461037BD4680BD00BF9024002056
:106FA000F820002080B400AF00231846BD465DF8ED
:106FB000047B704780B500AF024805F00DFC00234C
:106FC000184680BDF820002080B483B000AF03468F
:106FD000FB71094997F907305B09FA7902F01F0242
:106FE000012000FA02F241F8232000BF0C37BD4611
:106FF0005DF8047B704700BF00E100E080B483B01F
:1070000000AF0346FB71094997F907305B09FA792C
:1070100002F01F02012000FA02F2203341F823207F
:1070200000BF0C37BD465DF8047B704700E100E00F
:1070300080B483B000AF0346FB71094997F907306C
:107040005B09FA7902F01F02012000FA02F24033D4
:1070500041F8232000BF0C37BD465DF8047B704724
:1070600000E100E080B483B000AF0346FB71094942
:1070700097F907305B09FA7902F01F02012000FA44
:1070800002F2603341F8232000BF0C37BD465DF8A3
:10709000047B704700E100E080B483B000AF03469A
:1070A0003960FB7197F90730002B0BDA0D49FB793A
:1070B00003F00F03043B3A68D2B25201D2B20B4440
:1070C0001A7609E0084997F907303A68D2B25201B6
:1070D000D2B20B4483F8002300BF0C37BD465DF8E5
:1070E000047B704700ED00E000E100E02BDF70471B
:1070F00000BF18462CDF704700BF18462DDF7047D1
:1071000000BF18462EDF704700BF18462FDF7047BC
:1071100000BF184630DF704700BF184633DF7047A6
:1071200000BF184634DF704700BF184631DF704794
:1071300000BF184632DF704700BF184635DF704782
:1071400000BF184636DF704700BF184637DF70476C
:1071500000BF184638DF704700BF184639DF704758
:1071600000BF18463ADF704700BF18463BDF704744
:1071700000BF18463CDF704700BF18463DDF704730
:1071800000BF18463FDF704700BF184640DF70471A
:1071900000BF184641DF704700BF18463EDF70470A
:1071A00000BF184620DF704700BF184621DF704738
:1071B00000BF184622DF704700BF184623DF704724
:1071C00000BF184624DF704700BF184625DF704710
:1071D00000BF184626DF704700BF184627DF7047FC
:1071E00000BF184642DF704700BF184643DF7047B4
:1071F00000BF184644DF704700BF184648DF70479D
:1072000000BF184649DF704700BF184629DF7047A6
:1072100000BF184628DF704700BF18462ADF7047B6
:1072200000BF184645DF704700BF184646DF70476D
:1072300000BF184647DF704700BF184680B485B0CE
:1072400000AF7860254BFB607B68002B40D0244B5F
:107250001A68F9687B6800BF00BF00BF00BF00BFAD
:1072600000BF00BF00BF8A422FD000BF00BF00BFD9
:1072700000BF00BF00BF00BF00BF00BF00BF00BF16
:1072800000BF00BF00BF00BF00BF00BF00BF00BF06
:1072900000BF00BF00BF00BF00BF00BF00BF00BFF6
:1072A00000BF00BF00BF00BF00BF00BF00BF00BFE6
:1072B00000BF00BF00BF00BF00BF00BF00BF00BFD6
:1072C00000BF00BF00BF00BF00BF013BC3D17B6058
:1072D00000BF1437BD465DF8047B70470024F400FE
:1072E000F420002080B582B000AF7860054A7B684A
:1072F000C2F8083507211120FFF7CEFE00BF08377E
:10730000BD4680BD0010014080B500AF0D4B4FF46D
:107310008032C3F844230B4B4FF48032C3F804236C
:107320001120FFF79FFE1120FFF74EFE054B0122B3
:107330001A602F20FFF782FF034B01221A7000BF53
:1073400080BD00BF00100140BA25002080B500AF0D
:107350001120FFF753FE0F4B4FF48032C3F8482340
:107360000C4B4FF48032C3F808230A4B01225A60B9
:107370002F20FFF763FF074B01229A60064B002284
:107380001A602F20FFF75AFF044B00221A7000BF2B
:1073900080BD00BF00100140AC250020BA250020B0
:1073A00080B400AF034BD3F804351846BD465DF8F2
:1073B000047B70470010014080B483B000AF786058
:1073C00039607A683B68D31A23F07F4318460C373C
:1073D000BD465DF8047B704780B483B000AF786031
:1073E000044A7B68C2F8403500BF0C37BD465DF8E3
:1073F000047B70470010014080B487B000AF786014
:10740000294B1B68002B03D1274A7B68136045E09A
:107410007B681A68244B1B681B689A4210D8224B61
:107420001B68214A126811687A6812688A1A1A6001
:107430001D4B1A687B68DA611B4A7B6813602DE07C
:107440007B681B68FB60184B1B687B61164B1B68D5
:107450003B6109E03B691B68FA68D31AFB603B6932
:107460007B613B69DB693B613B69002B04D03B6975
:107470001A68FB689A42EDD33B69002B05D03B6943
:107480001A68FB68D21A3B691A607B68FA681A604E
:107490007B683A69DA617B697A68DA6100BF1C3718
:1074A000BD465DF8047B7047A825002080B586B0F6
:1074B00000AF7860294B1B68FB60284B1B687B6121
:1074C0007B693B6108E03A697B689A4208D03B6976
:1074D0007B613B69DB693B613B69002BF3D100E0D9
:1074E00000BF3B69002B01D1002333E07A693B697F
:1074F0009A4214D1194B1B68DB69184A1360174B69
:107500001B68002B0BD1164B01229A60154B0022F1
:107510001A60154B01221A702F20FFF78FFE3B696E
:107520001B68BB603B69DA697B69DA617B69DB698F
:107530003B613B69002B05D03B691A68BB681A4464
:107540003B691A60054B1B68FA689A4214BF012315
:107550000023DBB218461837BD4680BDA8250020A1
:1075600000100140AC250020BB25002080B500AFF5
:107570001120FFF75DFD00BF80BD00BF80B500AFEB
:107580001420FFF755FD00BF80BD00BF80B582B05D
:1075900000AF78607B685B697A68926910469847AB
:1075A00000BF0837BD4680BD80B584B000AF2B4B0F
:1075B0001B68002B4ED000237B60FFF7F1FE0246D4
:1075C000274B1B6819461046FFF7F6FEB860234BA1
:1075D0001B68FB601DE0FB681A68BB689A421CD8F8
:1075E000FB681B68BA68D31ABB60FB681B687A68C3
:1075F00013447B60FB683B60FB68DB69FB603B68B6
:107600001B7C002B05D03B6800221A743868FFF7FA
:10761000BDFFFB68002BDED100E000BF114B1A78E4
:10762000114B1B789A420CD10F4B1B780133DAB205
:107630000D4B1A700C4B1B78022B02D10A4B002207
:107640001A70094B1B781946084A7B6842F82130AA
:10765000FFF794FF00BF1037BD4680BDA82500206E
:10766000AC250020B8250020B9250020B025002039
:1076700080B483B000AF7860194B1A78194B1B782F
:107680009A4223D0164B1B780133DAB2144B1A708E
:10769000134B1B78022B02D1114B00221A70104B96
:1076A0001B781A46104B53F822207B681A607B68BF
:1076B0001A680E4B1B6813440C4A13600B4B1B6873
:1076C00023F07F43094A1360012303E07B68002213
:1076D0001A60002318460C37BD465DF8047B7047DE
:1076E000B8250020B9250020B0250020AC250020B9
:1076F00080B489B000AFF860B9607A600023FB61A4
:1077000038E0214B1B68BB61BB691A68FB689A4271
:1077100006D9BB691A68FB68D21ABB691A602DE0EA
:10772000BB691B68FA68D31AFB60BB691B68FA69FE
:107730001344FB61BB6900221A60134B1B687B6119
:10774000BB69DB69104A1360BB69DB68002B11D091
:10775000BA68FB69134423F07F42BB695A60BB6976
:10776000DA68BB699A607B681A68BB69DA617B6812
:107770007A691A60044B1B68002BC2D100BF243702
:10778000BD465DF8047B7047A825002080B588B011
:1077900000AF78600023FB77654B1B687B61A9E035
:1077A0007B68002B05D07B68BB61BB69DB697B60B4
:1077B00060E0604B1B781A4613465B001344DB0005
:1077C0005C4A134404333B615A4B1B780133DAB2F1
:1077D000584B1A70574B1A78564B9B789A4202D1E5
:1077E000544B00221A703B695B68BB613B691B7894
:1077F000022B04D0032B1AD0012B1ED01CE03B69B6
:107800005B681846FFF752FE0346002B01D00123A8
:10781000FB77BB6900221A746CE0454B1B68FB6068
:10782000FB6800221A74FB68DB69414A1360404B15
:107830001B68002BF1D15DE05CE000BFBB691B7CE5
:10784000002B00D056E03B699A68BB695A603B69DF
:10785000DA68BB699A603B691A69BB69DA603B699F
:107860005A69BB699A61344B1B78002B02D0BB6903
:1078700000225A60BB695A68304B1B68D31A23F048
:107880007F432F4A93420ED8BB695A682B4B1B6823
:1078900019461046FFF790FD0246BB699B681A44E3
:1078A000BB691A6017E0254B1A68BB695B6819460B
:1078B0001046FFF781FDB860BB699A68BB689A42C1
:1078C00006D9BB699A68BB68D21ABB691A6002E024
:1078D000BB6900221A60BB6900225A60BB690022A2
:1078E0009A60BB6901221A74BB690022DA61B86927
:1078F000FFF782FD7B68002B7FF452AF0D4B1A78A7
:107900000C4B5B789A427FF44BAFFB7F002B04D18A
:10791000074B1A687B699A4201D0012300E00023DB
:1079200003F00103DBB218462037BD4680BD00BF1F
:10793000A82500209C240020BB250020AC25002089
:10794000FEFF7F0090B589B000AF7860274B1B68C1
:10795000002B44D0254B1B681B68FB61FFF720FD03
:10796000B861234B1B687B617969B869FFF724FD17
:10797000034603333B611F4B1B7883F00103DBB2EB
:10798000002B01D0FFF7C0FC3A69FB69934238BF76
:1079900013467A6913447B617B6923F07F437B61E3
:1079A0007869FFF719FDFFF7FBFCF860B969F86823
:1079B000FFF702FD0346DC1CB9697869FFF7FCFCA0
:1079C00003469C420DD9FFF7EBFC03461846FFF730
:1079D00003FD2F20FFF732FCFFF7C8FD01E0FFF7A2
:1079E000B5FC00BF2437BD4690BD00BFA8250020D0
:1079F000AC250020BA25002080B586B000AF00235A
:107A00007B600023FB75164B1B683B61154B1B68A5
:107A1000FB603B461846FFF72BFE0346FB72FB7AE2
:107A2000002B07D03B683A1D39691846FFF760FE06
:107A30000123FB757B681846FFF7A8FE0346002B61
:107A400001D00123FB75FB7D002B02D0F868FFF706
:107A500079FF054B00221A7000BF1837BD4680BD64
:107A6000AC250020A8250020BB25002080B483B0D1
:107A700000AF0346FB71044AFB79537000BF0C371B
:107A8000BD465DF8047B70479C24002080B485B01F
:107A900000AF7860134B5B780133FB73114B9B781D
:107AA000FA7B9A4201D10023FB730E4B1B78FA7BC1
:107AB0009A4201D100230EE07B68FA7B1A70094BD1
:107AC0005B781A4613465B001344DB00054A1344F7
:107AD0000433BB60BB6818461437BD465DF8047BB1
:107AE000704700BF9C24002080B588B000AFF860CC
:107AF000B9607A603B600023FB610023BB7507F12E
:107B000016031846FEF7C0FE07F117031846FFF7E5
:107B1000BDFFB861BB69002B02D10423FB6117E0F4
:107B2000BB6901221A70BB69FA685A60FFF738FC1A
:107B30000246BB699A60BB69BA68DA60BB697A6859
:107B40001A61BB693A685A61FB7D1846FFF78EFFE0
:107B5000BB7D1846FEF7A4FEFB69002B01D1FFF7A1
:107B60000DFDFB6918462037BD4680BD80B586B047
:107B700000AF78600B46FB7000237B610023BB7372
:107B800007F10E031846FEF77FFE07F10F031846B4
:107B9000FFF77CFF38613B69002B02D104237B6136
:107BA00009E03B69FA781A703B697A685A60FB7B96
:107BB0001846FFF75BFFBB7B1846FEF771FE7B693B
:107BC000002B01D1FFF7DAFC7B6918461837BD4658
:107BD00080BD00BF80B500AF0D4B0022C3F840212F
:107BE0000B4B0022C3F84421094B0022C3F8482163
:107BF000074B0022C3F84C21054B0022C3F800219B
:107C0000034B0022C3F80421FFF7CEFC00BF80BD68
:107C10000010014080B500AFFFF7EEFE00BF80BD51
:107C200080B500AFFFF792FB134B00221A70124B86
:107C300000225A70104B0B229A70104B00221A60CF
:107C40000F4B00221A700F4B00221A701420FFF7FE
:107C500009FA07211420FFF71FFA1420FFF7B4F9DF
:107C60000020FFF73FFBFFF79BFB0246064B1A6025
:107C70000023184680BD00BF9C240020A8250020BA
:107C8000B8250020B9250020AC25002080B487B09D
:107C900000AFF8600B467A60FB72154B9B78002BA7
:107CA00001D108231DE07B68002B01D1072318E0D8
:107CB000FB68002B01D1072313E0FB681B681B7CCA
:107CC000002B01D008230CE0FB681B687B617B69FB
:107CD00000221A747B69FA7A5A747B697A685A614D
:107CE000002318461C37BD465DF8047B704700BF73
:107CF0009C24002080B586B000AFF860B9607A603F
:107D0000FB687B61144B9B78002B01D108231EE09C
:107D1000FB68002B01D1082319E0BB68042B01D8B4
:107D2000072314E07B695B69002B01D108230EE077
:107D30007B695B7C012B01D1BB6800E000233B61C8
:107D40007B683A69B9687869FFF7CEFE0346184642
:107D50001837BD4680BD00BF9C24002080B584B08C
:107D600000AF78607B68FB600D4B9B78002B01D1E6
:107D7000082310E07B68002B03D0FB685B69002BB5
:107D800001D1082307E0FB6800221A740221F86879
:107D9000FFF7ECFE034618461037BD4680BD00BF16
:107DA0009C24002080B500AF064B9B78002B01D1AE
:107DB000082304E003210020FFF7D8FE03461846FD
:107DC00080BD00BF9C24002080B500AFFFF7E8FA1B
:107DD0000346184680BD00BF80B582B000AF786012
:107DE000396039687868FFF7E7FA034618460837BC
:107DF000BD4680BD80B400AF034B01225A6000BF76
:107E0000BD465DF8047B70470010014080B400AFB0
:107E1000034B01221A6000BFBD465DF8047B70472A
:107E20000010014080B584B000AF7860786800F041
:107E30000DF8F860FB68002B01D0FB6800E0024BF6
:107E400018461037BD4680BD0460030080B487B07B
:107E500000AF7860174B7B61174B3B611FE03A69BD
:107E60007B69D31ADB10DA0F13445B10DB007A69ED
:107E70001344FB60FB681B68BB60BA687B689A426E
:107E800002D9FB683B610AE0BA687B689A4203D278
:107E9000FB6808337B6102E0FB685B6804E07A6999
:107EA0003B699A42DBD3002318461C37BD465DF878
:107EB000047B7047206303001064030080B584B026
:107EC00000AFF860B9607A60FB68002B02D0BB6835
:107ED000002B01D10E2309E0FB68BA681A60FB6829
:107EE0001B681B687968F86898470346184610377E
:107EF000BD4680BD80B584B000AF786039607B68D6
:107F0000002B01D10E2313E07B681B68002B01D1ED
:107F100008230DE07B681B685B68396878689847C0
:107F2000F8607B6800221A607B6800225A60FB6858
:107F300018461037BD4680BD90B585B000AFF860DB
:107F4000B9607A603B60FB68002B02D07B68002B35
:107F500001D10E2329E0FB681B68002B01D1082307
:107F600023E03B68002B01D109231EE0B86800F034
:107F700045F9034683F00103DBB2002B0AD13A68CE
:107F8000B968F86800F01AF9034683F00103DBB220
:107F9000002B01D0102308E0FB681B689C683B683D
:107FA0007A68B968F868A047034618461437BD4692
:107FB00090BD00BF90B587B002AFF860B9607A603D
:107FC0003B60FB68002B02D07B68002B01D10E23A5
:107FD00040E0FB681B68002B01D108233AE03B68B6
:107FE000002B0AD0FB685B685A683B68B3FBF2F170
:107FF00002FB01F29B1A002B01D009232AE0B8688A
:1080000000F0FCF8034683F00103DBB2002B14D12F
:108010007B68184600F0F2F8034683F00103DBB2F8
:10802000002B0AD13A68B968F86800F0C7F803462F
:1080300083F00103DBB2002B01D010230AE0FB68C0
:108040001B68DC683B6A00933B687A68B968F8682B
:10805000A047034618461437BD4690BD90B585B07D
:1080600000AFF860B9607A603B60FB68002B01D11B
:108070000E232EE0FB681B68002B01D1082328E0AB
:108080007B68002B01D1092323E0FB685B681B6838
:108090005A1EBB681340002B10D1FB685B681B683D
:1080A0007A6802FB03F31A46B968F86800F086F8AC
:1080B000034683F00103DBB2002B01D0102308E05C
:1080C000FB681B681C693B687A68B968F868A04758
:1080D000034618461437BD4690BD00BF80B582B038
:1080E00000AF786039607B68002B01D1002306E087
:1080F0007B681B685B69396878689847034618464F
:108100000837BD4680BD00BF80B582B000AF786043
:1081100039607B68002B01D1002306E07B681B6877
:108120009B69396878689847034618460837BD4602
:1081300080BD00BF80B584B000AF78607B68002B45
:1081400003D07B681B68002B28D10023FB6019E05B
:10815000FA6813469B0013449B001A46144B1344C1
:108160007B607B681B68002B09D07B681B68DB6920
:10817000786898470346002B01D0012314E0FB6880
:108180000133FB600B4A0A4BD31A0B4AA2FB0323B1
:108190001B09FA689A42DBD3002305E07B681B6861
:1081A000DB6978689847034618461037BD4680BD9E
:1081B0003C2200203C220020CDCCCCCC80B485B029
:1081C00000AFF860B9607A60FB68DA68BB689A4211
:1081D00009D8BA687B6813445A1EFB681B699A4227
:1081E00001D8012300E0002303F00103DBB21846AD
:1081F0001437BD465DF8047B704700BF80B483B080
:1082000000AF78607B6803F00303002B0CBF0123F1
:108210000023DBB218460C37BD465DF8047B70477F
:1082200080B483B000AF786039607B683A681A60C8
:108230007B681B681A687B685A607B685A687B6831
:108240001B685B689A4202D17B6800225A6000BFBB
:108250000C37BD465DF8047B704700BF80B483B027
:1082600000AF78607B685B68002B14D07B685B682C
:108270001A467B681B689B6813441A467B685A60E1
:108280007B685A687B681B685B689A4204D17B688C
:1082900000225A6000E000BF0C37BD465DF8047B49
:1082A000704700BF2BDF704700BF18462CDF7047B8
:1082B00000BF18462DDF704700BF18462EDF7047FD
:1082C00000BF18462FDF704700BF184630DF7047E9
:1082D00000BF184633DF704700BF184634DF7047D1
:1082E00000BF184631DF704700BF184632DF7047C5
:1082F00000BF184635DF704700BF184636DF7047AD
:1083000000BF184637DF704700BF184638DF704798
:1083100000BF184639DF704700BF18463ADF704784
:1083200000BF18463BDF704700BF18463CDF704770
:1083300000BF18463DDF704700BF18463FDF70475B
:1083400000BF184640DF704700BF184641DF704746
:1083500000BF18463EDF704700BF184620DF704759
:1083600000BF184621DF704700BF184622DF704764
:1083700000BF184623DF704700BF184624DF704750
:1083800000BF184625DF704700BF184626DF70473C
:1083900000BF184627DF704700BF184642DF70470E
:1083A00000BF184643DF704700BF184644DF7047E0
:1083B00000BF184648DF704700BF184649DF7047C6
:1083C00000BF184629DF704700BF184628DF7047F6
:1083D00000BF18462ADF704700BF184645DF7047C8
:1083E00000BF184646DF704700BF184647DF70479A
:1083F00000BF184690B486B000AF786039607B68E3
:108400003A6853E8004F04EB020043E8000191F0A2
:10841000000FF6D17C613861F9603B691846183766
:10842000BD4690BC704700BF90B486B000AF786086
:1084300039607B683A6853E8004FA4EB020043E8D8
:10844000000191F0000FF6D17C613861F9603B6961
:1084500018461837BD4690BC704700BF80B582B043
:1084600000AF7860786803F047F90346184608378C
:10847000BD4680BD80B58AB000AF786039607B684A
:108480001B8B1A467B681B8B013B03F00303D21A3C
:108490007B685B69D9B27B685B691B0ADBB20B4402
:1084A0009B00D31A013BFB613A68FB691344DA1C59
:1084B000FB69B2FBF3F3FB76786803F083F978612C
:1084C0007B69002B01D1002337E07B6900221A7100
:1084D0007B6901225A71FB699AB27B69DA807B69F8
:1084E0007B62FB7E013B3B617B6A7A681A600023FA
:1084F0003B621DE0786803F065F9F860FB68002BCB
:108500000ED07B695B790133DAB27B695A717B6A81
:10851000FA681A60FB687A681A60FB687B6204E09C
:10852000786900F00FF8002307E03B6A01333B62F3
:108530003A6A3B699A42DDD37B6918462837BD46C3
:1085400080BD00BF80B58AB000AF78607B68FB61FA
:10855000FB695B79FB767B683B62FB7E013B7B6161
:1085600000237B6205E03B6A1B683B627B6A013348
:108570007B627A6A7B699A42F5D33B6A1B683B61EE
:108580007B683B6200237B620BE03B6A1B68FB60FD
:10859000396A386903F05AF9FB683B627B6A013338
:1085A0007B62FA7E7B6A9A42EFD800BF2837BD46CD
:1085B00080BD00BF80B584B000AF78607B68FB6091
:1085C000FB68043301211846FFF714FF00BF103782
:1085D000BD4680BD80B586B000AF78607B687B61AA
:1085E0007B69043301211846FFF71EFF0346FB6039
:1085F00007F10C033B613B691B78002B02D17868C3
:10860000FFF7A0FF00BF1837BD4680BD80B58CB016
:1086100000AFF860B9607A603B60FB68BB61BB6922
:10862000DB887B61FB68FB623B681A1D7B69B2FBE0
:10863000F3F3BB623B6804337A69B3FBF2F2796906
:1086400001FB02F29B1A7B623A687B681A447B69E1
:108650001344DA1C7B69B2FBF3F3FB7405E0FB6A9D
:108660001B68FB62BB6A013BBB62BB6A002BF6D195
:1086700000233B627A697B6AD31AFB61FA697B68E3
:10868000934228BF1346FB612DE097F83830002B4A
:108690000BD0BA683B6AD018FA6A7B6A1344043379
:1086A000FA6919460CF0C4F80AE0FA6A7B6A1344C6
:1086B000181DBA683B6A1344FA6919460CF0B8F8F9
:1086C00000237B62FB6A1B68FB627A68FB69D31A32
:1086D0007B603A6AFB6913443B627A697B68934228
:1086E00028BF1346FB617B68002BCED100BF30371B
:1086F000BD4680BD80B586B002AFF860B9607A60D3
:108700003B60002300933B687A68B968F868FFF71C
:108710007DFF00BF1037BD4680BD00BF80B586B06D
:1087200002AFF860B9607A603B60012300933B6858
:108730007A68B968F868FFF769FF00BF1037BD466F
:1087400080BD00BF2BDF704700BF18462CDF70478D
:1087500000BF18462DDF704700BF18462EDF704758
:1087600000BF18462FDF704700BF184630DF704744
:1087700000BF184633DF704700BF184634DF70472C
:1087800000BF184631DF704700BF184632DF704720
:1087900000BF184635DF704700BF184636DF704708
:1087A00000BF184637DF704700BF184638DF7047F4
:1087B00000BF184639DF704700BF18463ADF7047E0
:1087C00000BF18463BDF704700BF18463CDF7047CC
:1087D00000BF18463DDF704700BF18463FDF7047B7
:1087E00000BF184640DF704700BF184641DF7047A2
:1087F00000BF18463EDF704700BF184620DF7047B5
:1088000000BF184621DF704700BF184622DF7047BF
:1088100000BF184623DF704700BF184624DF7047AB
:1088200000BF184625DF704700BF184626DF704797
:1088300000BF184627DF704700BF184642DF704769
:1088400000BF184643DF704700BF184644DF70473B
:1088500000BF184648DF704700BF184649DF704721
:1088600000BF184629DF704700BF184628DF704751
:1088700000BF18462ADF704700BF184645DF704723
:1088800000BF184646DF704700BF184647DF7047F5
:1088900000BF184680B500AFFBF7F8FC00BF80BDF5
:1088A00080B588B000AFF860B9607A607B68002B53
:1088B00022D00023FB610A23BB61BA68FB69134421
:1088C0007A6819460020FBF78BF87861FA697B69B2
:1088D0001344FB617A687B69D31A7B607B69002B48
:1088E00005D1BB69013BBB61BB69002B03D07B6831
:1088F000002BE2D100E000BF00BF2037BD4680BDA5
:1089000080B584B002AF78603960064B0093402395
:10891000054A3968786800F0C5F800BF0837BD46D9
:1089200080BD00BFA1880200BC25002080B483B0B8
:1089300000AF786000BF0C37BD465DF8047B704720
:1089400080B483B000AF786000BF0C37BD465DF8DF
:10895000047B70472BDF704700BF18462CDF704741
:1089600000BF18462DDF704700BF18462EDF704746
:1089700000BF18462FDF704700BF184630DF704732
:1089800000BF184633DF704700BF184634DF70471A
:1089900000BF184631DF704700BF184632DF70470E
:1089A00000BF184635DF704700BF184636DF7047F6
:1089B00000BF184637DF704700BF184638DF7047E2
:1089C00000BF184639DF704700BF18463ADF7047CE
:1089D00000BF18463BDF704700BF18463CDF7047BA
:1089E00000BF18463DDF704700BF18463FDF7047A5
:1089F00000BF184640DF704700BF184641DF704790
:108A000000BF18463EDF704700BF184620DF7047A2
:108A100000BF184621DF704700BF184622DF7047AD
:108A200000BF184623DF704700BF184624DF704799
:108A300000BF184625DF704700BF184626DF704785
:108A400000BF184627DF704700BF184642DF704757
:108A500000BF184643DF704700BF184644DF704729
:108A600000BF184648DF704700BF184649DF70470F
:108A700000BF184629DF704700BF184628DF70473F
:108A800000BF18462ADF704700BF184645DF704711
:108A900000BF184646DF704700BF184647DF7047E3
:108AA00000BF184680B5A0B002AFF860B9607A6028
:108AB0003B60B868FFF77EFD7B68FB643B683B6505
:108AC00000237B65002387F858300023FB65D7F827
:108AD00080303B6600237B6707F134017B6F0822FF
